{
  "transactions": [
    {
      "hash": "0x078bb0e1e9f788999900f2bd28ffa3da0db3c7745807c86ac202442ef0a642c0",
      "transactionType": "CALL",
      "contractName": null,
      "contractAddress": "0xd62bfbf2050e8fead90e32558329d43a6efce4c8",
      "function": "setCreationFee(uint256)",
      "arguments": [
        "0"
      ],
      "transaction": {
        "from": "0xf65330dc75e32b20be62f503a337cd1a072f898f",
        "to": "0xd62bfbf2050e8fead90e32558329d43a6efce4c8",
        "gas": "0x81e8",
        "value": "0x0",
        "input": "0xb7d862250000000000000000000000000000000000000000000000000000000000000000",
        "nonce": "0x1",
        "chainId": "0x9da"
      },
      "additionalContracts": [],
      "isFixedGasLimit": false
    },
    {
      "hash": "0xbb739cda3f1d62f47168de53268e5bcfebe6304e2f923f07a023fe5fbe5df976",
      "transactionType": "CALL",
      "contractName": null,
      "contractAddress": "0xd62bfbf2050e8fead90e32558329d43a6efce4c8",
      "function": "launchToken((string,string,string,string,string,string,string))",
      "arguments": [
        "(\"Ramp Token\", \"RTK\", \"Community token for ramp.fun\", \"ramp.jpg\", \"x.com/ramp.fun\", \"t.me/ramp.fun\", \"test2.com\")"
      ],
      "transaction": {
        "from": "0xf65330dc75e32b20be62f503a337cd1a072f898f",
        "to": "0xd62bfbf2050e8fead90e32558329d43a6efce4c8",
        "gas": "0x193311",
        "value": "0x0",
        "input": "0xfa1c492e000000000000000000000000000000000000000000000000000000000000002000000000000000000000000000000000000000000000000000000000000000e00000000000000000000000000000000000000000000000000000000000000120000000000000000000000000000000000000000000000000000000000000016000000000000000000000000000000000000000000000000000000000000001a000000000000000000000000000000000000000000000000000000000000001e000000000000000000000000000000000000000000000000000000000000002200000000000000000000000000000000000000000000000000000000000000260000000000000000000000000000000000000000000000000000000000000000a52616d7020546f6b656e00000000000000000000000000000000000000000000000000000000000000000000000000000000000000000000000000000000000352544b0000000000000000000000000000000000000000000000000000000000000000000000000000000000000000000000000000000000000000000000001c436f6d6d756e69747920746f6b656e20666f722072616d702e66756e00000000000000000000000000000000000000000000000000000000000000000000000872616d702e6a7067000000000000000000000000000000000000000000000000000000000000000000000000000000000000000000000000000000000000000e782e636f6d2f72616d702e66756e000000000000000000000000000000000000000000000000000000000000000000000000000000000000000000000000000d742e6d652f72616d702e66756e00000000000000000000000000000000000000000000000000000000000000000000000000000000000000000000000000000974657374322e636f6d0000000000000000000000000000000000000000000000",
        "nonce": "0x2",
        "chainId": "0x9da"
      },
      "additionalContracts": [
        {
          "transactionType": "CREATE",
          "address": "0x1b54a4d16cf1c119e3201b6492764ad8df7cec68",
          "initCode": "0x6101a0604090808252346104bd5761183e803803809161001f82856104c2565b833981019060a0818303126104bd5780516001600160401b0392908381116104bd578161004d918401610508565b60209182840151908582116104bd57610067918501610508565b9461007381850161055c565b9260806100826060870161055c565b95015190825197838901898110898211176103d4578452600197888a52828a0198603160f81b8a5286518281116103d45760038054918383811c931680156104b3575b8784101461049d57601f92838111610457575b5080878482116001146103f5576000916103ea575b5060001982841b1c191690841b1781555b8451918483116103d45760049586548581811c911680156103ca575b898210146103b55782811161036f575b5087918411600114610309579383949184926000956102fe575b50501b92600019911b1c19161782555b61015d86610570565b98610120998a5261016d8b610701565b966101409788528481519101209a8b60e0525190206101009a818c524660a052865191858301917f8b73c3c69bb8fe3d512ecc4cf759cc79239f7b179b0ffacaa9a75d522b39400f83528884015260608301524660808301523060a083015260a0825260c0820192828410908411176102e957828752815190206080523060c05260ff196008541660085561016097885261018098895233156102d2575050600254908382018092116102bd57506000917fddf252ad1be2c89b69c2b068fc378daa952ba7f163c4a11628f55a4df523b3ef9160025533835282815284832084815401905584519384523393a35193610ff79586610847873960805186610b63015260a05186610c2f015260c05186610b2d015260e05186610bb201525185610bd80152518461045f01525183610489015251828181610301015281816105b401526109f1015251816108b50152f35b601190634e487b7160e01b6000525260246000fd5b63ec442f0560e01b8252600060c490910152602490fd5b604184634e487b7160e01b6000525260246000fd5b015193503880610144565b9190601f198416928760005284896000209460005b8b89838310610358575050501061033e575b50505050811b018255610154565b01519060f884600019921b161c1916905538808080610330565b86860151895590970196948501948893500161031e565b87600052886000208380870160051c8201928b88106103ac575b0160051c019086905b8281106103a057505061012a565b60008155018690610392565b92508192610389565b602288634e487b7160e01b6000525260246000fd5b90607f169061011a565b634e487b7160e01b600052604160045260246000fd5b90508a0151386100ed565b60008481528981208794509190601f198416908b8f5b838310610440575050508311610428575b5050811b0181556100fe565b8c015160001983861b60f8161c19169055388061041c565b840151855589969094019392830192018b8f61040b565b82600052876000208480840160051c8201928a8510610494575b0160051c019085905b8281106104885750506100d8565b6000815501859061047a565b92508192610471565b634e487b7160e01b600052602260045260246000fd5b92607f16926100c5565b600080fd5b601f909101601f19168101906001600160401b038211908210176103d457604052565b60005b8381106104f85750506000910152565b81810151838201526020016104e8565b81601f820112156104bd5780516001600160401b0381116103d4576040519261053b601f8301601f1916602001856104c2565b818452602082840101116104bd5761055991602080850191016104e5565b90565b51906001600160a01b03821682036104bd57565b805160209190828110156105eb575090601f8251116105ab578082519201519080831061059c57501790565b82600019910360031b1b161790565b6044906105dd9260405193849263305a27a960e01b8452806004850152825192839182602487015286860191016104e5565b601f01601f19168101030190fd5b6001600160401b0381116103d4576005928354926001938481811c911680156106f7575b8382101461049d57601f81116106c3575b5081601f841160011461065d5750928293918392600094610652575b50501b916000199060031b1c191617905560ff90565b01519250388061063c565b919083601f1981168760005284600020946000905b888383106106a95750505010610690575b505050811b01905560ff90565b015160001960f88460031b161c19169055388080610683565b858701518855909601959485019487935090810190610672565b8560005284601f846000209201871c820191601f8601881c015b8281106106eb575050610620565b600081550185906106dd565b90607f169061060f565b80516020908181101561072b5750601f8251116105ab578082519201519080831061059c57501790565b906001600160401b0382116103d457600654926001938481811c9116801561083c575b8382101461049d57601f8111610805575b5081601f841160011461079d5750928293918392600094610792575b50501b916000199060031b1c19161760065560ff90565b01519250388061077b565b919083601f198116600660005284600020946000905b888383106107eb57505050106107d2575b505050811b0160065560ff90565b015160001960f88460031b161c191690553880806107c4565b8587015188559096019594850194879350908101906107b3565b600660005284601f84600020920160051c820191601f860160051c015b82811061083057505061075f565b60008155018590610822565b90607f169061074e56fe608060408181526004918236101561001657600080fd5b600092833560e01c91826302d05d3f146108a15750816306fdde03146107c6578163095ea7b31461079457816318160ddd1461077557816323b872dd1461067e578163313ce5671461066257816331a18ea11461063e5781633644e5151461061a57816370a08231146105e35781637165485d1461059f5781637ecebe001461056757816384b0196e1461044757816395d89b4114610357578163a71406b6146102df578163a9059cbb146102ae578163d505accf1461012b575063dd62ed3e146100e057600080fd5b34610127578060031936011261012757806020926100fc610924565b61010461093f565b6001600160a01b0391821683526001865283832091168252845220549051908152f35b5080fd5b839150346101275760e036600319011261012757610147610924565b61014f61093f565b906044359260643560843560ff811681036102aa5760ff600854161561029a578142116102835760018060a01b0390818516928389526007602052898920908154916001830190558a519060208201927f6e71edae12b1b97f4d1f60370fef10105fa2faae0126114a169c64845d6126c98452868d840152858a1660608401528a608084015260a083015260c082015260c0815260e0810181811067ffffffffffffffff821117610270578b5251902061023e916102359161020f610b2a565b908c519161190160f01b83526002830152602282015260c43591604260a4359220610eac565b90929192610f3c565b168181036102555786610252878787610c55565b80f35b87516325c0072360e11b815292830152602482015260449150fd5b634e487b7160e01b8b526041875260248bfd5b875163313c898160e11b8152808401839052602490fd5b875163ad8c648b60e01b81528390fd5b8680fd5b5050346101275780600319360112610127576020906102d86102ce610924565b6024359033610a4c565b5160018152f35b9050346103535760203660031901126103535780359182151580930361034f577f00000000000000000000000000000000000000000000000000000000000000006001600160a01b0316330361034257505060ff80196008541691161760085580f35b516363f46cb560e01b8152fd5b8380fd5b8280fd5b91905034610353578260031936011261035357805183819490845461037b81610955565b918285526020966001928860018216918260001461041d5750506001146103c2575b85886103be896103af848a03856109c1565b519282849384528301906108e4565b0390f35b815286935091907f8a35acfbc15ff81a39ae7d344fd709f28e8600b4aa8c65c6b64bfe7fe36bd19b5b82841061040557505050820101816103af6103be3861039d565b8054848a0186015288955087949093019281016103eb565b60ff19168882015294151560051b870190940194508593506103af92506103be915038905061039d565b919050346103535782600319360112610353576104837f0000000000000000000000000000000000000000000000000000000000000000610ce8565b926104ad7f0000000000000000000000000000000000000000000000000000000000000000610dec565b90825192602092602085019585871067ffffffffffffffff881117610554575092602061050a8388966104fd998b9996528686528151998a99600f60f81b8b5260e0868c015260e08b01906108e4565b91898303908a01526108e4565b924660608801523060808801528460a088015286840360c088015251928381520193925b82811061053d57505050500390f35b83518552869550938101939281019260010161052e565b634e487b7160e01b845260419052602483fd5b5050346101275760203660031901126101275760209181906001600160a01b0361058f610924565b1681526007845220549051908152f35b505034610127578160031936011261012757517f00000000000000000000000000000000000000000000000000000000000000006001600160a01b03168152602090f35b5050346101275760203660031901126101275760209181906001600160a01b0361060b610924565b16815280845220549051908152f35b505034610127578160031936011261012757602090610637610b2a565b9051908152f35b50503461012757816003193601126101275760209060ff6008541690519015158152f35b5050346101275781600319360112610127576020905160128152f35b905082346107725760603660031901126107725761069a610924565b6106a261093f565b916044359360018060a01b0383168083526001602052868320338452602052868320549160001983036106de575b6020886102d8898989610a4c565b86831061074657811561072f573315610718575082526001602090815286832033845281529186902090859003905582906102d8876106d0565b8751634a1406b160e11b8152908101849052602490fd5b875163e602df0560e01b8152908101849052602490fd5b8751637dc7a0d960e11b8152339181019182526020820193909352604081018790528291506060010390fd5b80fd5b5050346101275781600319360112610127576020906002549051908152f35b5050346101275780600319360112610127576020906107bd6107b4610924565b602435906109e3565b90519015158152f35b82843461077257806003193601126107725781519182826003546107e981610955565b908184526020956001918760018216918260001461087a57505060011461081e575b5050506103be92916103af9103856109c1565b9190869350600383527fc2575a0e9e593c00f959f8c92f12db2869c3395a3b0502d05e2516446f71f85b5b82841061086257505050820101816103af6103be61080b565b8054848a018601528895508794909301928101610849565b60ff19168782015293151560051b860190930193508492506103af91506103be905061080b565b8490346101275781600319360112610127577f00000000000000000000000000000000000000000000000000000000000000006001600160a01b03168152602090f35b919082519283825260005b848110610910575050826000602080949584010152601f8019910116010190565b6020818301810151848301820152016108ef565b600435906001600160a01b038216820361093a57565b600080fd5b602435906001600160a01b038216820361093a57565b90600182811c92168015610985575b602083101461096f57565b634e487b7160e01b600052602260045260246000fd5b91607f1691610964565b6040810190811067ffffffffffffffff8211176109ab57604052565b634e487b7160e01b600052604160045260246000fd5b90601f8019910116810190811067ffffffffffffffff8211176109ab57604052565b906001600160a01b038083167f0000000000000000000000000000000000000000000000000000000000000000909116148015610a40575b610a315760405163ad8c648b60e01b8152600490fd5b610a3b9133610c55565b600190565b5060ff60085416610a1b565b916001600160a01b03808416928315610b115716928315610af85760009083825281602052604082205490838210610ac6575091604082827fddf252ad1be2c89b69c2b068fc378daa952ba7f163c4a11628f55a4df523b3ef958760209652828652038282205586815220818154019055604051908152a3565b60405163391434e360e21b81526001600160a01b03919091166004820152602481019190915260448101839052606490fd5b60405163ec442f0560e01b815260006004820152602490fd5b604051634b637e8f60e11b815260006004820152602490fd5b307f00000000000000000000000000000000000000000000000000000000000000006001600160a01b03161480610c2c575b15610b85577f000000000000000000000000000000000000000000000000000000000000000090565b60405160208101907f8b73c3c69bb8fe3d512ecc4cf759cc79239f7b179b0ffacaa9a75d522b39400f82527f000000000000000000000000000000000000000000000000000000000000000060408201527f000000000000000000000000000000000000000000000000000000000000000060608201524660808201523060a082015260a0815260c0810181811067ffffffffffffffff8211176109ab5760405251902090565b507f00000000000000000000000000000000000000000000000000000000000000004614610b5c565b6001600160a01b03908116918215610ccf5716918215610cb65760207f8c5be1e5ebec7d5bd14f71427d1e84f3dd0314c0f7b2291e5b200ac8c7c3b925918360005260018252604060002085600052825280604060002055604051908152a3565b604051634a1406b160e11b815260006004820152602490fd5b60405163e602df0560e01b815260006004820152602490fd5b60ff8114610d265760ff811690601f8211610d145760405191610d0a8361098f565b8252602082015290565b604051632cd44ac360e21b8152600490fd5b50604051600554816000610d3983610955565b80835292602090600190818116908115610dc85750600114610d67575b5050610d64925003826109c1565b90565b91509260056000527f036b6384b5eca791c62761152d0c79bb0604c104a5fb6f4eb0703f3154bb3db0936000925b828410610db05750610d649450505081016020013880610d56565b85548785018301529485019486945092810192610d95565b91505060209250610d6494915060ff191682840152151560051b8201013880610d56565b60ff8114610e0e5760ff811690601f8211610d145760405191610d0a8361098f565b50604051600654816000610e2183610955565b80835292602090600190818116908115610dc85750600114610e4b575050610d64925003826109c1565b91509260066000527ff652222313e28459528d920b65115c16c04f3efc82aaedc97be59f3f377c0d3f936000925b828410610e945750610d649450505081016020013880610d56565b85548785018301529485019486945092810192610e79565b91907f7fffffffffffffffffffffffffffffff5d576e7357a4501ddfe92f46681b20a08411610f3057926020929160ff608095604051948552168484015260408301526060820152600092839182805260015afa15610f245780516001600160a01b03811615610f1b57918190565b50809160019190565b604051903d90823e3d90fd5b50505060009160039190565b6004811015610fab5780610f4e575050565b60018103610f685760405163f645eedf60e01b8152600490fd5b60028103610f895760405163fce698f760e01b815260048101839052602490fd5b600314610f935750565b602490604051906335e2f38360e21b82526004820152fd5b634e487b7160e01b600052602160045260246000fdfea2646970667358221220f7cc8e66c14588fcaaa301e0efc5838bc7d5a238db77c59c60d1c4e13142fbda64736f6c6343000819003300000000000000000000000000000000000000000000000000000000000000a000000000000000000000000000000000000000000000000000000000000000e0000000000000000000000000d62bfbf2050e8fead90e32558329d43a6efce4c8000000000000000000000000f65330dc75e32b20be62f503a337cd1a072f898f0000000000000000000000000000000000000000033b2e3c9fd0803ce8000000000000000000000000000000000000000000000000000000000000000000000a52616d7020546f6b656e00000000000000000000000000000000000000000000000000000000000000000000000000000000000000000000000000000000000352544b0000000000000000000000000000000000000000000000000000000000"
        }
      ],
      "isFixedGasLimit": false
    },
    {
      "hash": "0xb16210d20fd594d702c1a931b676e0d9f3906b7f4bdd76738e6ea33fa6ec42f9",
      "transactionType": "CALL",
      "contractName": null,
      "contractAddress": "0xd62bfbf2050e8fead90e32558329d43a6efce4c8",
      "function": "swapEthForTokens(address,uint256,uint256,uint256)",
      "arguments": [
        "0x1B54a4d16cf1c119E3201B6492764aD8Df7CEc68",
        "1000000000000000",
        "34277831558567279767666990",
        "1719338450"
      ],
      "transaction": {
        "from": "0xf65330dc75e32b20be62f503a337cd1a072f898f",
        "to": "0xd62bfbf2050e8fead90e32558329d43a6efce4c8",
        "gas": "0x2d3d0",
        "value": "0x38d7ea4c68000",
        "input": "0xb242483e0000000000000000000000001b54a4d16cf1c119e3201b6492764ad8df7cec6800000000000000000000000000000000000000000000000000038d7ea4c680000000000000000000000000000000000000000000001c5a9cf8e1bdd0e871412e00000000000000000000000000000000000000000000000000000000667b05d2",
        "nonce": "0x3",
        "chainId": "0x9da"
      },
      "additionalContracts": [],
      "isFixedGasLimit": false
    },
    {
      "hash": "0x37db1b7143125c70c4e3c543118b18eb72c9a4b5474db4c9da7e83290b233930",
      "transactionType": "CALL",
      "contractName": "RampToken",
      "contractAddress": "0x1b54a4d16cf1c119e3201b6492764ad8df7cec68",
      "function": "approve(address,uint256)",
      "arguments": [
        "0xD62BfbF2050e8fEAD90e32558329D43A6efce4C8",
        "17138915779283639883833495"
      ],
      "transaction": {
        "from": "0xf65330dc75e32b20be62f503a337cd1a072f898f",
        "to": "0x1b54a4d16cf1c119e3201b6492764ad8df7cec68",
        "gas": "0x1080a",
        "value": "0x0",
        "input": "0x095ea7b3000000000000000000000000d62bfbf2050e8fead90e32558329d43a6efce4c80000000000000000000000000000000000000000000e2d4e7c70dee87438a097",
        "nonce": "0x4",
        "chainId": "0x9da"
      },
      "additionalContracts": [],
      "isFixedGasLimit": false
    },
    {
      "hash": "0x3b216d6e97f354132c49f953ecacc3e8b74c890b4b6f9eef359f29a9ae1d33f6",
      "transactionType": "CALL",
      "contractName": null,
      "contractAddress": "0xd62bfbf2050e8fead90e32558329d43a6efce4c8",
      "function": "swapTokensForEth(address,uint256,uint256,uint256)",
      "arguments": [
        "0x1B54a4d16cf1c119E3201B6492764aD8Df7CEc68",
        "17138915779283639883833495",
        "498004574520415",
        "1719338450"
      ],
      "transaction": {
        "from": "0xf65330dc75e32b20be62f503a337cd1a072f898f",
        "to": "0xd62bfbf2050e8fead90e32558329d43a6efce4c8",
        "gas": "0x25456",
        "value": "0x0",
        "input": "0x836554670000000000000000000000001b54a4d16cf1c119e3201b6492764ad8df7cec680000000000000000000000000000000000000000000e2d4e7c70dee87438a0970000000000000000000000000000000000000000000000000001c4eeb9c2c45f00000000000000000000000000000000000000000000000000000000667b05d2",
        "nonce": "0x5",
        "chainId": "0x9da"
      },
      "additionalContracts": [],
      "isFixedGasLimit": false
    }
  ],
  "receipts": [
    {
      "status": "0x1",
      "cumulativeGasUsed": "0x18fc1",
      "logs": [],
      "logsBloom": "0x00000000000000000000000000000000000000000000000000000000000000000000000000000000000000000000000000000000000000000000000000000000000000000000000000000000000000000000000000000000000000000000000000000000000000000000000000000000000000000000000000000000000000000000000000000000000000000000000000000000000000000000000000000000000000000000000000000000000000000000000000000000000000000000000000000000000000000000000000000000000000000000000000000000000000000000000000000000000000000000000000000000000000000000000000000000",
      "type": "0x2",
      "transactionHash": "0x078bb0e1e9f788999900f2bd28ffa3da0db3c7745807c86ac202442ef0a642c0",
      "transactionIndex": "0x1",
      "blockHash": "0xaa5e4ef5305df812089a5803f11d7502277213e80612983a50fdffe3aa1caee3",
      "blockNumber": "0x938f58",
      "gasUsed": "0x5e0e",
      "effectiveGasPrice": "0xfd",
      "from": "0xf65330dc75e32b20be62f503a337cd1a072f898f",
      "to": "0xd62bfbf2050e8fead90e32558329d43a6efce4c8",
      "contractAddress": null,
      "l1Fee": "0x86dedc9a1",
      "l1GasPrice": "0x3e0d20f4",
      "l1GasUsed": "0x750"
    },
    {
      "status": "0x1",
      "cumulativeGasUsed": "0x13cfcc",
      "logs": [
        {
          "address": "0x1b54a4d16cf1c119e3201b6492764ad8df7cec68",
          "topics": [
            "0xddf252ad1be2c89b69c2b068fc378daa952ba7f163c4a11628f55a4df523b3ef",
            "0x0000000000000000000000000000000000000000000000000000000000000000",
            "0x000000000000000000000000d62bfbf2050e8fead90e32558329d43a6efce4c8"
          ],
          "data": "0x0000000000000000000000000000000000000000033b2e3c9fd0803ce8000000",
          "blockHash": "0xaa5e4ef5305df812089a5803f11d7502277213e80612983a50fdffe3aa1caee3",
          "blockNumber": "0x938f58",
          "transactionHash": "0xbb739cda3f1d62f47168de53268e5bcfebe6304e2f923f07a023fe5fbe5df976",
          "transactionIndex": "0x2",
          "logIndex": "0x1",
          "removed": false
        },
        {
          "address": "0xd62bfbf2050e8fead90e32558329d43a6efce4c8",
          "topics": [
            "0x4c3449617a987f0d9b9e9b06cc25e185a3bf4ee8d294d61d2e310a9a0ec498b0",
            "0x000000000000000000000000f65330dc75e32b20be62f503a337cd1a072f898f"
          ],
          "data": "0x0000000000000000000000001b54a4d16cf1c119e3201b6492764ad8df7cec680000000000000000000000000000000000000000000000000000000000000120000000000000000000000000000000000000000000000000000000000000016000000000000000000000000000000000000000000000000000000000000001a000000000000000000000000000000000000000000000000000000000000001e00000000000000000000000000000000000000000000000000000000000000220000000000000000000000000000000000000000000000000000000000000026000000000000000000000000000000000000000000000000000000000000002a000000000000000000000000000000000000000000000000000000000667b0570000000000000000000000000000000000000000000000000000000000000000a52616d7020546f6b656e00000000000000000000000000000000000000000000000000000000000000000000000000000000000000000000000000000000000352544b0000000000000000000000000000000000000000000000000000000000000000000000000000000000000000000000000000000000000000000000001c436f6d6d756e69747920746f6b656e20666f722072616d702e66756e00000000000000000000000000000000000000000000000000000000000000000000000872616d702e6a7067000000000000000000000000000000000000000000000000000000000000000000000000000000000000000000000000000000000000000e782e636f6d2f72616d702e66756e000000000000000000000000000000000000000000000000000000000000000000000000000000000000000000000000000d742e6d652f72616d702e66756e00000000000000000000000000000000000000000000000000000000000000000000000000000000000000000000000000000974657374322e636f6d0000000000000000000000000000000000000000000000",
          "blockHash": "0xaa5e4ef5305df812089a5803f11d7502277213e80612983a50fdffe3aa1caee3",
          "blockNumber": "0x938f58",
          "transactionHash": "0xbb739cda3f1d62f47168de53268e5bcfebe6304e2f923f07a023fe5fbe5df976",
          "transactionIndex": "0x2",
          "logIndex": "0x2",
          "removed": false
        },
        {
          "address": "0xd62bfbf2050e8fead90e32558329d43a6efce4c8",
          "topics": [
            "0xeadf1668b2f8926f6538c3b24fceb72251daa320b74c8c36da738cce051c48c0",
            "0x0000000000000000000000001b54a4d16cf1c119e3201b6492764ad8df7cec68",
            "0x000000000000000000000000f65330dc75e32b20be62f503a337cd1a072f898f"
          ],
          "data": "0x0000000000000000000000000000000000000000000000000000000001aa9ed10000000000000000000000000000000000000000000000000063548e560aea0000000000000000000000000000000000000000000000000000000000667b0570",
          "blockHash": "0xaa5e4ef5305df812089a5803f11d7502277213e80612983a50fdffe3aa1caee3",
          "blockNumber": "0x938f58",
          "transactionHash": "0xbb739cda3f1d62f47168de53268e5bcfebe6304e2f923f07a023fe5fbe5df976",
          "transactionIndex": "0x2",
          "logIndex": "0x3",
          "removed": false
        }
      ],
      "logsBloom": "0x00000000020000401000000000000000800000000000000000010000000000000000000000000001000000000000000000000000000000000010000000200400000000000000000100000008000000000000000000000000000000000000000008008000020000000000000000000800000000000000000000000010000000000000000020000000000000000000000000000000000000000000000000000000000000040000000000000000000002000000000000000000000800002000000000000002000000000000000000000008000000200000000400000000000020000000000000000000000000000000000000000080000000000000000000000000",
      "type": "0x2",
      "transactionHash": "0xbb739cda3f1d62f47168de53268e5bcfebe6304e2f923f07a023fe5fbe5df976",
      "transactionIndex": "0x2",
      "blockHash": "0xaa5e4ef5305df812089a5803f11d7502277213e80612983a50fdffe3aa1caee3",
      "blockNumber": "0x938f58",
      "gasUsed": "0x12400b",
      "effectiveGasPrice": "0xfd",
      "from": "0xf65330dc75e32b20be62f503a337cd1a072f898f",
      "to": "0xd62bfbf2050e8fead90e32558329d43a6efce4c8",
      "contractAddress": null,
      "l1Fee": "0x1a8c8dbff9",
      "l1GasPrice": "0x3e0d20f4",
      "l1GasUsed": "0x1708"
    },
    {
      "status": "0x1",
      "cumulativeGasUsed": "0x15dbd4",
      "logs": [
        {
          "address": "0x1b54a4d16cf1c119e3201b6492764ad8df7cec68",
          "topics": [
            "0xddf252ad1be2c89b69c2b068fc378daa952ba7f163c4a11628f55a4df523b3ef",
            "0x000000000000000000000000d62bfbf2050e8fead90e32558329d43a6efce4c8",
            "0x000000000000000000000000f65330dc75e32b20be62f503a337cd1a072f898f"
          ],
          "data": "0x0000000000000000000000000000000000000000001c5a9cf8e1bdd0e871412e",
          "blockHash": "0xaa5e4ef5305df812089a5803f11d7502277213e80612983a50fdffe3aa1caee3",
          "blockNumber": "0x938f58",
          "transactionHash": "0xb16210d20fd594d702c1a931b676e0d9f3906b7f4bdd76738e6ea33fa6ec42f9",
          "transactionIndex": "0x3",
          "logIndex": "0x4",
          "removed": false
        },
        {
          "address": "0xd62bfbf2050e8fead90e32558329d43a6efce4c8",
          "topics": [
            "0xeadf1668b2f8926f6538c3b24fceb72251daa320b74c8c36da738cce051c48c0",
            "0x0000000000000000000000001b54a4d16cf1c119e3201b6492764ad8df7cec68",
            "0x000000000000000000000000f65330dc75e32b20be62f503a337cd1a072f898f"
          ],
          "data": "0x0000000000000000000000000000000000000000000000000000000001c73dee0000000000000000000000000000000000000000000000000069fe885209cc0000000000000000000000000000000000000000000000000000000000667b0570",
          "blockHash": "0xaa5e4ef5305df812089a5803f11d7502277213e80612983a50fdffe3aa1caee3",
          "blockNumber": "0x938f58",
          "transactionHash": "0xb16210d20fd594d702c1a931b676e0d9f3906b7f4bdd76738e6ea33fa6ec42f9",
          "transactionIndex": "0x3",
          "logIndex": "0x5",
          "removed": false
        },
        {
          "address": "0xd62bfbf2050e8fead90e32558329d43a6efce4c8",
          "topics": [
            "0x3893b12ea2017f00ca6b320ece400190bef0f01352a842b563729af4b14e8f36",
            "0x000000000000000000000000f65330dc75e32b20be62f503a337cd1a072f898f",
            "0x0000000000000000000000001b54a4d16cf1c119e3201b6492764ad8df7cec68"
          ],
          "data": "0x00000000000000000000000000000000000000000000000000038d7ea4c680000000000000000000000000000000000000000000001c5a9cf8e1bdd0e871412e000000000000000000000000000000000000000000000000000009184e72a00000000000000000000000000000000000000000000000000000000000667b05700000000000000000000000000000000000000000000000000000000000000001",
          "blockHash": "0xaa5e4ef5305df812089a5803f11d7502277213e80612983a50fdffe3aa1caee3",
          "blockNumber": "0x938f58",
          "transactionHash": "0xb16210d20fd594d702c1a931b676e0d9f3906b7f4bdd76738e6ea33fa6ec42f9",
          "transactionIndex": "0x3",
          "logIndex": "0x6",
          "removed": false
        }
      ],
      "logsBloom": "0x00000000020000401000000000000000800000000000000000010000000000000000000000000000000000000000000000000000000000000010000000200400000000000000000000000008000000000000000000400000000000000000000008008000000000000000000000000000000000000000000000000010000000000000000020000000000000000000000000000000000000004000000000000000000000040000000000000000000002000000000000000000000800002000000000000002000000000000000000000008000000200000000400000000000000000000000000000000200000000000000000000000000000000000000000000000",
      "type": "0x2",
      "transactionHash": "0xb16210d20fd594d702c1a931b676e0d9f3906b7f4bdd76738e6ea33fa6ec42f9",
      "transactionIndex": "0x3",
      "blockHash": "0xaa5e4ef5305df812089a5803f11d7502277213e80612983a50fdffe3aa1caee3",
      "blockNumber": "0x938f58",
      "gasUsed": "0x20c08",
      "effectiveGasPrice": "0xfd",
      "from": "0xf65330dc75e32b20be62f503a337cd1a072f898f",
      "to": "0xd62bfbf2050e8fead90e32558329d43a6efce4c8",
      "contractAddress": null,
      "l1Fee": "0xcf7e3fb1f",
      "l1GasPrice": "0x3e0d20f4",
      "l1GasUsed": "0xb40"
    },
    {
      "status": "0x1",
      "cumulativeGasUsed": "0x16905f",
      "logs": [
        {
          "address": "0x1b54a4d16cf1c119e3201b6492764ad8df7cec68",
          "topics": [
            "0x8c5be1e5ebec7d5bd14f71427d1e84f3dd0314c0f7b2291e5b200ac8c7c3b925",
            "0x000000000000000000000000f65330dc75e32b20be62f503a337cd1a072f898f",
            "0x000000000000000000000000d62bfbf2050e8fead90e32558329d43a6efce4c8"
          ],
          "data": "0x0000000000000000000000000000000000000000000e2d4e7c70dee87438a097",
          "blockHash": "0xaa5e4ef5305df812089a5803f11d7502277213e80612983a50fdffe3aa1caee3",
          "blockNumber": "0x938f58",
          "transactionHash": "0x37db1b7143125c70c4e3c543118b18eb72c9a4b5474db4c9da7e83290b233930",
          "transactionIndex": "0x4",
          "logIndex": "0x7",
          "removed": false
        }
      ],
      "logsBloom": "0x00000000000000400000000000000000000000000000000000010000000000000000000000000000000000000000000000000000000000000000000000200400000000000000000000000000000000000000000000000000000000000000000000000000000000000000000000000000000000000000000000000000000000000000000020000000000000000000000000000000000000000000000000000000020000040000000000000000000002000000000000000000000800000000000000000000000000000000000000000008000000000000000400000000000000000010000000000000000000000000000000000000000000000000000000000000",
      "type": "0x2",
      "transactionHash": "0x37db1b7143125c70c4e3c543118b18eb72c9a4b5474db4c9da7e83290b233930",
      "transactionIndex": "0x4",
      "blockHash": "0xaa5e4ef5305df812089a5803f11d7502277213e80612983a50fdffe3aa1caee3",
      "blockNumber": "0x938f58",
      "gasUsed": "0xb48b",
      "effectiveGasPrice": "0xfd",
      "from": "0xf65330dc75e32b20be62f503a337cd1a072f898f",
      "to": "0x1b54a4d16cf1c119e3201b6492764ad8df7cec68",
      "contractAddress": null,
      "l1Fee": "0xad32fb915",
      "l1GasPrice": "0x3e0d20f4",
      "l1GasUsed": "0x964"
    },
    {
      "status": "0x1",
      "cumulativeGasUsed": "0x182820",
      "logs": [
        {
          "address": "0x1b54a4d16cf1c119e3201b6492764ad8df7cec68",
          "topics": [
            "0xddf252ad1be2c89b69c2b068fc378daa952ba7f163c4a11628f55a4df523b3ef",
            "0x000000000000000000000000f65330dc75e32b20be62f503a337cd1a072f898f",
            "0x000000000000000000000000d62bfbf2050e8fead90e32558329d43a6efce4c8"
          ],
          "data": "0x0000000000000000000000000000000000000000000e2d4e7c70dee87438a097",
          "blockHash": "0xaa5e4ef5305df812089a5803f11d7502277213e80612983a50fdffe3aa1caee3",
          "blockNumber": "0x938f58",
          "transactionHash": "0x3b216d6e97f354132c49f953ecacc3e8b74c890b4b6f9eef359f29a9ae1d33f6",
          "transactionIndex": "0x5",
          "logIndex": "0x8",
          "removed": false
        },
        {
          "address": "0xd62bfbf2050e8fead90e32558329d43a6efce4c8",
          "topics": [
            "0xeadf1668b2f8926f6538c3b24fceb72251daa320b74c8c36da738cce051c48c0",
            "0x0000000000000000000000001b54a4d16cf1c119e3201b6492764ad8df7cec68",
            "0x000000000000000000000000f65330dc75e32b20be62f503a337cd1a072f898f"
          ],
          "data": "0x0000000000000000000000000000000000000000000000000000000001b8952e000000000000000000000000000000000000000000000000006694c6fd624c0000000000000000000000000000000000000000000000000000000000667b0570",
          "blockHash": "0xaa5e4ef5305df812089a5803f11d7502277213e80612983a50fdffe3aa1caee3",
          "blockNumber": "0x938f58",
          "transactionHash": "0x3b216d6e97f354132c49f953ecacc3e8b74c890b4b6f9eef359f29a9ae1d33f6",
          "transactionIndex": "0x5",
          "logIndex": "0x9",
          "removed": false
        },
        {
          "address": "0xd62bfbf2050e8fead90e32558329d43a6efce4c8",
          "topics": [
            "0x3893b12ea2017f00ca6b320ece400190bef0f01352a842b563729af4b14e8f36",
            "0x000000000000000000000000f65330dc75e32b20be62f503a337cd1a072f898f",
            "0x0000000000000000000000001b54a4d16cf1c119e3201b6492764ad8df7cec68"
          ],
          "data": "0x0000000000000000000000000000000000000000000e2d4e7c70dee87438a0970000000000000000000000000000000000000000000000000001c4eeb9c2c45f00000000000000000000000000000000000000000000000000000493382ded4b00000000000000000000000000000000000000000000000000000000667b05700000000000000000000000000000000000000000000000000000000000000000",
          "blockHash": "0xaa5e4ef5305df812089a5803f11d7502277213e80612983a50fdffe3aa1caee3",
          "blockNumber": "0x938f58",
          "transactionHash": "0x3b216d6e97f354132c49f953ecacc3e8b74c890b4b6f9eef359f29a9ae1d33f6",
          "transactionIndex": "0x5",
          "logIndex": "0xa",
          "removed": false
        }
      ],
      "logsBloom": "0x00000000020000401000000000000000800000000000000000010000000000000000000000000000000000000000000000000000000000000010000000200400000000000000000000000008000000000000000000400000000000000000000008008000000000000000000000000000000000000000000000000010000000000000000020000000000000000000000000000000000000004000000000000000000000040000000000000000000002000000000000000000000800002000000000000002000000000000000000000008000000200000000400000000000000000000000000000000200000000000000000000000000000000000000000000000",
      "type": "0x2",
      "transactionHash": "0x3b216d6e97f354132c49f953ecacc3e8b74c890b4b6f9eef359f29a9ae1d33f6",
      "transactionIndex": "0x5",
      "blockHash": "0xaa5e4ef5305df812089a5803f11d7502277213e80612983a50fdffe3aa1caee3",
      "blockNumber": "0x938f58",
      "gasUsed": "0x197c1",
      "effectiveGasPrice": "0xfd",
      "from": "0xf65330dc75e32b20be62f503a337cd1a072f898f",
      "to": "0xd62bfbf2050e8fead90e32558329d43a6efce4c8",
      "contractAddress": null,
      "l1Fee": "0xc849dd7bc",
      "l1GasPrice": "0x3e0d20f4",
      "l1GasUsed": "0xadc"
    }
  ],
  "libraries": [],
  "pending": [],
  "returns": {},
  "timestamp": 1719338357,
  "chain": 2522,
  "commit": "40ef0bf"
}