{
  "transactions": [
    {
      "hash": "0xa09f531db49e641b514cb882a9df89acdf66d3b9bb90a86598a41f91cdd25bd1",
      "transactionType": "CALL",
      "contractName": null,
      "contractAddress": "0xfa598e9bd1970e0cb42b1e23549a6d5436680b51",
      "function": "setCreationFee(uint256)",
      "arguments": [
        "0"
      ],
      "transaction": {
        "from": "0xf65330dc75e32b20be62f503a337cd1a072f898f",
        "to": "0xfa598e9bd1970e0cb42b1e23549a6d5436680b51",
        "gas": "0x81e8",
        "value": "0x0",
        "input": "0xb7d862250000000000000000000000000000000000000000000000000000000000000000",
        "nonce": "0x6",
        "chainId": "0x14a34"
      },
      "additionalContracts": [],
      "isFixedGasLimit": false
    }
  ],
  "receipts": [
    {
      "status": "0x1",
      "cumulativeGasUsed": "0xd4ff5",
      "logs": [],
      "logsBloom": "0x00000000000000000000000000000000000000000000000000000000000000000000000000000000000000000000000000000000000000000000000000000000000000000000000000000000000000000000000000000000000000000000000000000000000000000000000000000000000000000000000000000000000000000000000000000000000000000000000000000000000000000000000000000000000000000000000000000000000000000000000000000000000000000000000000000000000000000000000000000000000000000000000000000000000000000000000000000000000000000000000000000000000000000000000000000000",
      "type": "0x2",
      "transactionHash": "0xa09f531db49e641b514cb882a9df89acdf66d3b9bb90a86598a41f91cdd25bd1",
      "transactionIndex": "0x2",
      "blockHash": "0xf852ec503d73220ec92c2e2e505160cdb4412c06eb787ed71c1b1467cb5726bf",
      "blockNumber": "0xb6bacd",
      "gasUsed": "0x5e0e",
      "effectiveGasPrice": "0x10cafb",
      "from": "0xf65330dc75e32b20be62f503a337cd1a072f898f",
      "to": "0xfa598e9bd1970e0cb42b1e23549a6d5436680b51",
      "contractAddress": null,
      "l1BaseFeeScalar": "0x44d",
      "l1BlobBaseFee": "0x1",
      "l1BlobBaseFeeScalar": "0xa118b",
      "l1Fee": "0x1f94fffb1",
      "l1GasPrice": "0x11ed93dc3",
      "l1GasUsed": "0x640"
    }
  ],
  "libraries": [],
  "pending": [],
  "returns": {},
  "timestamp": 1719719039,
  "chain": 84532,
  "commit": "cb95df8"
}